S00D00005765656B322E7372656359
S113000045C0000072C00000B3C000005CC0000026
S11300105AC0000058C0000056C0000054C0000080
S113002052C0000050C000004EC000004CC0000090
S11300304AC0000048C0000046C0000044C00000A0
S113004042C0000040C000003EC000003CC00000B0
S11300503AC0000038C0000036C0000034C00000C0
S113006032C0000030C000002EC000002CC00000D0
S11300702AC0000028C0000026C0000024C00000E0
S113008022C0000020C000001EC0000011241FBEBA
S1130090CFEFD0E1DEBFCDBF11E0A0E0B1E0E2E5FB
S11300A0F2E000E00BBF02C007900D92A831B10747
S11300B0D9F721E0A8E1B1E001C01D92AA31B2074D
S11300C0E1F7C2D0C4C09CCF181619066CF420E026
S11300D030E0EFECF7E03197F1F700C000002F5F5C
S11300E03F4F82179307A9F708951F920F920FB6F7
S11300F00F9211240BB60F922F933F934F935F935C
S11301006F937F938F939F93AF93BF93EF93FF93DB
S113011015BA80911801909119018038910539F42C
S113012081E090E0909319018093180106C0880F34
S1130130991F909319018093180195B38091180128
S1130140892B85BB8AE090E0BFDFFF91EF91BF91DF
S1130150AF919F918F917F916F915F914F913F915B
S11301602F910F900BBE0F900FBE0F901F901895FC
S11301701F920F920FB60F9211240BB60F922F936A
S11301803F934F935F936F937F938F939F93AF931B
S1130190BF93EF93FF9315BA8091180190911901C1
S11301A095958795009729F09093190180931801EC
S11301B006C080E890E0909319018093180195B3EC
S11301C080911801892B85BB8AE090E07DDFFF9147
S11301D0EF91BF91AF919F918F917F916F915F91BB
S11301E04F913F912F910F900BBE0F900FBE0F9028
S11301F01F901895CF93DF93CDB7DEB727970FB62F
S1130200F894DEBF0FBECDBF87E0E0E0F1E0DE0191
S1130210119601900D928A95E1F700E010E012BA70
S1130220E1E0F0E0EC0FFD1FE00FF11F808182BBE5
S1130230063011051CF40F5F1F4F02C000E010E0F0
S113024084EF91E041DFEBCF8FEF81BBD3DFF894F4
S1050250FFCFDA
S1130252010204081020403F065B4F666D7D077F54
S10B02626F777C395E797100AD
S9030000FC
