S00D00005765656B342E7372656357
S113000045C0000053C0000051C000004FC00000B4
S11300104DC000004BC0000049C0000047C00000B4
S113002045C0000043C0000041C000003FC00000C4
S11300303DC000003BC0000039C0000037C00000D4
S113004035C0000033C0000031C000002FC00000E4
S11300502DC000002CC0000029C0000027C00000F3
S113006025C0000023C0000021C000001FC0000004
S11300701DC000001BC0000019C0000017C0000014
S113008015C0000013C0000011C0000011241FBEE1
S1130090CFEFD0E1DEBFCDBF21E0A0E0B1E001C0F1
S11300A01D92A230B207E1F73BD0D4C0A9CF1F9272
S11300B00F920FB60F9211240BB60F922F933F930A
S11300C04F935F936F937F938F939F93AF93BF935C
S11300D0EF93FF9324B135B1A8E8B3E1ACD02FEF8F
S11300E033E040E050E085D03093010120930001DB
S11300F0FF91EF91BF91AF919F918F917F916F91FC
S11301005F914F913F912F910F900BBE0F900FBEB7
S11301100F901F90189581E087B98EEE86B90895E7
S11301208FEF8ABB87BB10926100F5DF789421E7DB
S113013032E0FF24FA940EEF1CEFD8EFC0EFF0EE9C
S113014040ECE0E88091000190910101B9013DD0BB
S1130150CB01A0E0B0E082309105A105B10518F40F
S1130160E8BBEBBBEFCF83309105A105B10518F4D3
S113017048BB4BBBE7CF84309105A105B10518F40A
S1130180F8BBFBBBDFCF85309105A105B10518F4A1
S1130190C8BBCBBBD7CF86309105A105B10518F4F8
S11301A0D8BBDBBBCFCF87309105A105B10518F4CF
S11301B018BB1BBBC7CF0897A105B10518F408BB32
S11301C00BBBC0CFF8BAFBBABDCFAA1BBB1B51E116
S11301D007C0AA1FBB1FA617B70710F0A61BB70BB3
S11301E0881F991F5A95A9F780959095BC01CD0158
S11301F00895A1E21A2EAA1BBB1BFD010DC0AA1F64
S1130200BB1FEE1FFF1FA217B307E407F50720F07B
S1130210A21BB30BE40BF50B661F771F881F991FF6
S11302201A9469F760957095809590959B01AC013F
S1130230BD01CF010895A29FB001B39FC001A39F48
S1130240700D811D1124911DB29F700D811D11240B
S10B0250911D0895F894FFCFFD
S9030000FC
