S00D00005765656B332E7372656358
S113000045C0000053C0000051C000004FC00000B4
S11300104DC000004BC0000049C0000047C00000B4
S113002045C0000043C000008EC000003FC0000077
S11300303DC000003BC0000039C0000037C00000D4
S113004035C0000033C0000031C000002FC00000E4
S11300502DC000002BC0000029C0000027C00000F4
S113006025C0000023C0000021C000001FC0000004
S11300701DC000001BC0000019C0000017C0000014
S113008015C0000013C0000011C0000011241FBEE1
S1130090CFEFD0E1DEBFCDBF21E0A0E0B1E001C0F1
S11300A01D92A330B207E1F785D09EC0A9CF982F47
S11300B0907F95BBAB9AEFECF7E03197F1F700C076
S11300C0000094E095BBF0E18F9FC001112485BB33
S11300D0AB9A8FEC97E00197F1F700C0000015BAD6
S11300E008958FEC97E00197F1F700C0000081E0DC
S11300F0DECF089582E0DBDF88E2D9DF8CE0D7DF52
S113010086E0D5DF80E8D3CF0895982F907F95BB04
S113011095B39C6095BBEFECF7E03197F1F700C025
S1130120000094E095BBF0E18F9FC001112485BBD2
S113013085B38C6085BB8FEC97E00197F1F700C025
S1130140000015BA08951F920F920FB60F92112452
S11301500BB60F922F933F934F935F936F937F93BD
S11301608F939F93AF93BF93EF93FF93809100017D
S11301709091010101969093010180930001809375
S11301800201AFDF80910201C0DF8FEF84BDFF91D8
S1130190EF91BF91AF919F918F917F916F915F91FB
S11301A04F913F912F910F900BBE0F900FBE0F9068
S11301B01F9018958FEF81BB84BB15BA84BD87B798
S11301C0806487BF8FB780688FBF87E085BD7894D0
S11301D091DF87DF2FEF81EE94E021508040904043
S10F01E0E1F700C00000F6CFF894FFCF58
S9030000FC
