S00D00005765656B332E7372656358
S113000045C0000060C000005EC000005CC000008D
S11300105AC0000058C0000056C0000054C0000080
S113002052C0000050C00000BDC000004CC0000021
S11300304AC0000048C0000046C0000044C00000A0
S113004042C0000040C000003EC000003CC00000B0
S11300503AC0000038C0000036C0000034C00000C0
S113006032C0000030C000002EC000002CC00000D0
S11300702AC0000028C0000026C0000024C00000E0
S113008022C0000020C000001EC0000011241FBEBA
S1130090CFEFD0E1DEBFCDBF11E0A0E0B1E0E4EEF0
S11300A0F2E000E00BBF02C007900D92A031B1074F
S11300B0D9F721E0A0E1B1E001C01D92A632B20758
S11300C0E1F7BED00DC19CCF982F907F95BBAB9A22
S11300D0EFECF7E03197F1F700C0000094E095BB36
S11300E0F0E18F9FC001112485BBAB9A8FEC97E0A0
S11300F00197F1F700C0000015BA08958FEC97E05E
S11301000197F1F700C0000081E0DECF089582E09E
S1130110DBDF88E2D9DF8CE0D7DF86E0D5DF80E85B
S1130120D3CF0895982F907F95BB95B39C6095BBD2
S1130130EFECF7E03197F1F700C0000094E095BBD5
S1130140F0E18F9FC001112485BB85B38C6085BB12
S11301508FEC97E00197F1F700C0000015BA0895FD
S11301600F931F93CF93DF93EFECF7E03197F1F701
S113017000C00000FC0101900020E9F73197E81B62
S1130180F90B1E161F064CF4EC018C010E0F1F1FF9
S11301908991C8DFC017D107D9F7DF91CF911F919B
S11301A00F9108951F920F920FB60F9211240BB660
S11301B00F921F932F933F934F935F936F937F936C
S11301C08F939F93AF93BF93CF93DF93EF93FF935B
S11301D0CAE2D3E21FEF80911001909111010196C0
S11301E0909311018093100189DF80E290E0B8DFE1
S11301F04AE062E171E080911001909111013DD0DB
S1130200AFDF14BD8FE097E20197F1F700C0000063
S1130210219709F7FF91EF91DF91CF91BF91AF91B2
S11302209F918F917F916F915F914F913F912F910A
S11302301F910F900BBE0F900FBE0F901F9018953B
S11302408FEF81BB84BB15BA84BD87B7806487BF39
S11302508FB780688FBF87E085BD789458DF4EDF05
S113026080E091E07DDF2FEF81EE94E0215080402B
S11302709040E1F700C00000F6CFBB274A3031F4CC
S1130280992322F4BDE2909581959F4F01C0BB272D
S1130290FB015527AA27880F991FAA1FA41710F03E
S11302A0A41B83955051B9F7A05DAA3308F0A95D4A
S11302B0A193009779F7B111B1931192CB0100C0CA
S11302C0DC01FC01672F71917723E1F7329704C0B9
S11302D07C916D9370836291AE17BF07C8F3089544
S10702E0F894FFCFBC
S11302E448616C6C6F2044696564726963680000DA
S9030000FC
