S00D00005765656B332E7372656358
S113000045C0000058C0000056C0000054C00000A5
S113001052C0000050C000004EC000004CC00000A0
S11300204AC0000048C0000046C0000044C00000B0
S113003042C0000040C000003EC000003CC00000C0
S11300403AC0000038C0000036C0000034C00000D0
S113005032C0000030C000002EC000002CC00000E0
S11300602AC0000028C0000026C0000024C00000F0
S113007022C0000020C000001EC000001CC0000000
S11300801AC0000018C0000016C0000011241FBED2
S1130090CFEFD0E1DEBFCDBF11E0A0E0B1E0EEEBE9
S11300A0F1E000E00BBF02C007900D92A031B10750
S11300B0D9F770D082C0A4CF982F907F95BBAB9A0C
S11300C0EFECF7E03197F1F700C0000094E095BB46
S11300D0F0E18F9FC001112485BBAB9A8FEC97E0B0
S11300E00197F1F700C0000015BA08958FEC97E06E
S11300F00197F1F700C0000081E0DECF089582E0AF
S1130100DBDF88E2D9DF8CE0D7DF86E0D5DF80E86B
S1130110D3CF0895982F907F95BB95B39C6095BBE2
S1130120EFECF7E03197F1F700C0000094E095BBE5
S1130130F0E18F9FC001112485BB85B38C6085BB22
S11301408FEC97E00197F1F700C0000015BA08950D
S11301500F931F93CF93DF93EFECF7E03197F1F711
S113016000C00000FC0101900020E9F73197E81B72
S1130170F90B1E161F064CF4EC018C010E0F1F1F09
S11301808991C8DFC017D107D9F7DF91CF911F91AB
S11301900F9108958FEF81BB84BB15BAB0DFA6DF42
S11301A080E091E0D5DF2FEF81EE94E02150804094
S11101B09040E1F700C00000F6CFF894FFCFB6
S11301BE48616C6C6F204469656472696368000001
S9030000FC
