S00D00005765656B332E7372656358
S113000045C000004BC0000049C0000047C00000CC
S113001045C0000043C0000041C000003FC00000D4
S11300203DC000003BC0000039C0000037C00000E4
S113003035C0000033C0000031C000002FC00000F4
S11300402DC000002BC0000029C0000027C0000004
S113005025C0000023C0000021C000001FC0000014
S11300601DC000001BC0000019C0000017C0000024
S113007015C0000013C0000011C000000FC0000034
S11300800DC000000BC0000009C0000011241FBEF9
S1130090CFEFD0E1DEBFCDBF48D04AC0B1CF982F5B
S11300A0907F95BBAB9AEFECF7E03197F1F700C086
S11300B0000094E095BBF0E18F9FC001112485BB43
S11300C0AB9A8FEC97E00197F1F700C0000015BAE6
S11300D0089582E0E4DF88E2E2DF8CE0E0DF86E09E
S11300E0DEDF80E8DCCF0895982F907F95BB95B331
S11300F09C6095BBEFECF7E03197F1F700C000008E
S113010094E095BBF0E18F9FC001112485BB85B3BA
S11301108C6085BB8FEC97E00197F1F700C000007D
S113012015BA089581E6E0CF0895D3DFFBDFFFCF52
S1070130F894FFCF6D
S9030000FC
