S00E00005765656B34432E7372656313
S113000045C000004BC0000049C0000047C00000CC
S113001045C0000043C0000041C000003FC00000D4
S11300203DC000003BC0000039C0000037C00000E4
S113003035C0000033C0000031C000002FC00000F4
S11300402DC000002BC0000029C0000027C0000004
S113005025C0000023C0000021C000001FC0000014
S11300601DC000001BC0000019C0000017C0000024
S113007015C0000013C0000011C000000FC0000034
S11300800DC000000BC0000009C0000011241FBEF9
S1130090CFEFD0E1DEBFCDBFB1D0E4C0B1CF1816F1
S11300A019066CF420E030E0EFECF7E03197F1F75B
S11300B000C000002F5F3F4F82179307A9F70895F0
S11300C08FEF87BBBB98C09A82E58DB908958FB92D
S11300D0779BFECF089598B321E030E002C0220F51
S11300E0331F8A95E2F72095292328BB089598B3F6
S11300F021E030E002C0220F331F8A95E2F7292B5A
S113010028BB089580E0E7DF89E0E1DF8FEFDFDFE0
S113011080E0EDDF80E0DFDF8AE0D9DF8FE0D7DF4A
S113012080E0E5DF80E0D7DF8BE0D1DF83E0CFDF65
S113013080E0DDDF80E0CFDF8CE0C9DF81E0C7DF76
S113014080E0D5CF0895CF93DF93D82FC62F80E0DA
S1130150C2DF8D2FBCDF8C2FBADF80E0C8DFDF91D8
S1130160CF910895EF92FF920F931F93CF93DF9354
S1130170EC019923ECF068EE73E04DD07C0184E04F
S1130180E2DF04E610E0C701B80145D083E0DBDF1D
S1130190CE01B80140D00AE010E0B8013CD082E0C2
S11301A0D2DFCE01B80137D0682F81E0CCDF1FC089
S11301B06AE084E0C8DFD195C195D109CE0168EE2B
S11301C073E029D004E610E0B80125D083E0BBDF5A
S11301D0CE01B80120D00AE010E0B8011CD082E0C2
S11301E0B2DFCE01B80117D0682F81E0ACDFDF9118
S11301F0CF911F910F91FF90EF90089581E087BBFD
S11302005FDF80DF85E89FEFADDF88EE93E047DFB7
S113021081E090E0089597FB072E16F4009406D031
S113022077FD08D00BD007FC05D03EF4909581955E
S11302309F4F0895709561957F4F0895AA1BBB1B2E
S113024051E107C0AA1FBB1FA617B70710F0A61BD2
S1130250B70B881F991F5A95A9F780959095BC01F3
S10B0260CD010895F894FFCFCD
S9030000FC
